{
  "contractName": "ICO",
  "abi": [
    {
      "inputs": [
        {
          "internalType": "address",
          "name": "_tokenaddress",
          "type": "address"
        },
        {
          "internalType": "uint256",
          "name": "_duration",
          "type": "uint256"
        },
        {
          "internalType": "uint256",
          "name": "_price",
          "type": "uint256"
        },
        {
          "internalType": "uint256",
          "name": "_availableTokens",
          "type": "uint256"
        },
        {
          "internalType": "uint256",
          "name": "_maxpurchase",
          "type": "uint256"
        },
        {
          "internalType": "uint256",
          "name": "_minpurchase",
          "type": "uint256"
        }
      ],
      "stateMutability": "nonpayable",
      "type": "constructor"
    },
    {
      "inputs": [],
      "name": "admin",
      "outputs": [
        {
          "internalType": "address",
          "name": "",
          "type": "address"
        }
      ],
      "stateMutability": "view",
      "type": "function"
    },
    {
      "inputs": [],
      "name": "availableTokens",
      "outputs": [
        {
          "internalType": "uint256",
          "name": "",
          "type": "uint256"
        }
      ],
      "stateMutability": "view",
      "type": "function"
    },
    {
      "inputs": [],
      "name": "dai",
      "outputs": [
        {
          "internalType": "contract IERC20",
          "name": "",
          "type": "address"
        }
      ],
      "stateMutability": "view",
      "type": "function"
    },
    {
      "inputs": [],
      "name": "duration",
      "outputs": [
        {
          "internalType": "uint256",
          "name": "",
          "type": "uint256"
        }
      ],
      "stateMutability": "view",
      "type": "function"
    },
    {
      "inputs": [],
      "name": "end",
      "outputs": [
        {
          "internalType": "uint256",
          "name": "",
          "type": "uint256"
        }
      ],
      "stateMutability": "view",
      "type": "function"
    },
    {
      "inputs": [],
      "name": "maxpurchase",
      "outputs": [
        {
          "internalType": "uint256",
          "name": "",
          "type": "uint256"
        }
      ],
      "stateMutability": "view",
      "type": "function"
    },
    {
      "inputs": [],
      "name": "minpurchase",
      "outputs": [
        {
          "internalType": "uint256",
          "name": "",
          "type": "uint256"
        }
      ],
      "stateMutability": "view",
      "type": "function"
    },
    {
      "inputs": [],
      "name": "price",
      "outputs": [
        {
          "internalType": "uint256",
          "name": "",
          "type": "uint256"
        }
      ],
      "stateMutability": "view",
      "type": "function"
    },
    {
      "inputs": [
        {
          "internalType": "address",
          "name": "",
          "type": "address"
        }
      ],
      "name": "sales",
      "outputs": [
        {
          "internalType": "address",
          "name": "investor",
          "type": "address"
        },
        {
          "internalType": "uint256",
          "name": "amount",
          "type": "uint256"
        },
        {
          "internalType": "bool",
          "name": "tokenWithdrawn",
          "type": "bool"
        }
      ],
      "stateMutability": "view",
      "type": "function"
    },
    {
      "inputs": [],
      "name": "token",
      "outputs": [
        {
          "internalType": "contract Token",
          "name": "",
          "type": "address"
        }
      ],
      "stateMutability": "view",
      "type": "function"
    },
    {
      "inputs": [],
      "name": "start",
      "outputs": [],
      "stateMutability": "nonpayable",
      "type": "function"
    },
    {
      "inputs": [
        {
          "internalType": "uint256",
          "name": "tokenAmount",
          "type": "uint256"
        }
      ],
      "name": "buy",
      "outputs": [],
      "stateMutability": "nonpayable",
      "type": "function"
    },
    {
      "inputs": [],
      "name": "withdrawToken",
      "outputs": [],
      "stateMutability": "nonpayable",
      "type": "function"
    },
    {
      "inputs": [
        {
          "internalType": "uint256",
          "name": "amount",
          "type": "uint256"
        }
      ],
      "name": "withdrawDai",
      "outputs": [],
      "stateMutability": "nonpayable",
      "type": "function"
    }
  ],
  "bytecode": "0x6080604052736b175474e89094c44da98b954eedeac495271d0f600960006101000a81548173ffffffffffffffffffffffffffffffffffffffff021916908373ffffffffffffffffffffffffffffffffffffffff1602179055503480156200006657600080fd5b5060405162001a0d38038062001a0d83398181016040528101906200008c9190620003ed565b85600860006101000a81548173ffffffffffffffffffffffffffffffffffffffff021916908373ffffffffffffffffffffffffffffffffffffffff1602179055506000851162000113576040517f08c379a00000000000000000000000000000000000000000000000000000000081526004016200010a90620004ea565b60405180910390fd5b6000841162000159576040517f08c379a000000000000000000000000000000000000000000000000000000000815260040162000150906200055c565b60405180910390fd5b600083118015620001fd5750600860009054906101000a900473ffffffffffffffffffffffffffffffffffffffff1673ffffffffffffffffffffffffffffffffffffffff166372dd529b6040518163ffffffff1660e01b8152600401602060405180830381865afa158015620001d3573d6000803e3d6000fd5b505050506040513d601f19601f82011682018060405250810190620001f991906200057e565b8311155b6200023f576040517f08c379a0000000000000000000000000000000000000000000000000000000008152600401620002369062000600565b60405180910390fd5b6000811162000285576040517f08c379a00000000000000000000000000000000000000000000000000000000081526004016200027c9062000698565b60405180910390fd5b600082118015620002965750828211155b620002d8576040517f08c379a0000000000000000000000000000000000000000000000000000000008152600401620002cf906200070a565b60405180910390fd5b33600160006101000a81548173ffffffffffffffffffffffffffffffffffffffff021916908373ffffffffffffffffffffffffffffffffffffffff16021790555084600381905550836004819055508260058190555081600681905550806007819055505050505050506200072c565b600080fd5b600073ffffffffffffffffffffffffffffffffffffffff82169050919050565b60006200037a826200034d565b9050919050565b6200038c816200036d565b81146200039857600080fd5b50565b600081519050620003ac8162000381565b92915050565b6000819050919050565b620003c781620003b2565b8114620003d357600080fd5b50565b600081519050620003e781620003bc565b92915050565b60008060008060008060c087890312156200040d576200040c62000348565b5b60006200041d89828a016200039b565b96505060206200043089828a01620003d6565b95505060406200044389828a01620003d6565b94505060606200045689828a01620003d6565b93505060806200046989828a01620003d6565b92505060a06200047c89828a01620003d6565b9150509295509295509295565b600082825260208201905092915050565b7f6475726174696f6e2063616e6e6f742062652030000000000000000000000000600082015250565b6000620004d260148362000489565b9150620004df826200049a565b602082019050919050565b600060208201905081810360008301526200050581620004c3565b9050919050565b7f70726963652073686f756c64206e6f7420626520300000000000000000000000600082015250565b60006200054460158362000489565b915062000551826200050c565b602082019050919050565b60006020820190508181036000830152620005778162000535565b9050919050565b60006020828403121562000597576200059662000348565b5b6000620005a784828501620003d6565b91505092915050565b7f746f74616c20737570706c792065786365656473000000000000000000000000600082015250565b6000620005e860148362000489565b9150620005f582620005b0565b602082019050919050565b600060208201905081810360008301526200061b81620005d9565b9050919050565b7f6d696e696d756d207075726368617365206d757374206265206772656174657260008201527f207468616e203000000000000000000000000000000000000000000000000000602082015250565b60006200068060278362000489565b91506200068d8262000622565b604082019050919050565b60006020820190508181036000830152620006b38162000671565b9050919050565b7f6e6f7420656e6f75676820617661696c61626c6520746f6b656e730000000000600082015250565b6000620006f2601b8362000489565b9150620006ff82620006ba565b602082019050919050565b600060208201905081810360008301526200072581620006e3565b9050919050565b6112d1806200073c6000396000f3fe608060405234801561001057600080fd5b50600436106100ea5760003560e01c8063c6b9f06a1161008c578063efbe1c1c11610066578063efbe1c1c14610203578063f4b9fa7514610221578063f851a4401461023f578063fc0c546a1461025d576100ea565b8063c6b9f06a146101ab578063ca628c78146101dd578063d96a094a146101e7576100ea565b806369bb4dc2116100c857806369bb4dc21461014957806393a991af14610167578063a035b1fe14610183578063be9a6555146101a1576100ea565b80630fb5a6b4146100ef5780635428fca91461010d5780636829ae591461012b575b600080fd5b6100f761027b565b6040516101049190610b36565b60405180910390f35b610115610281565b6040516101229190610b36565b60405180910390f35b610133610287565b6040516101409190610b36565b60405180910390f35b61015161028d565b60405161015e9190610b36565b60405180910390f35b610181600480360381019061017c9190610b82565b610293565b005b61018b610448565b6040516101989190610b36565b60405180910390f35b6101a961044e565b005b6101c560048036038101906101c09190610c0d565b610539565b6040516101d493929190610c64565b60405180910390f35b6101e5610590565b005b61020160048036038101906101fc9190610b82565b610808565b005b61020b610aa5565b6040516102189190610b36565b60405180910390f35b610229610aab565b6040516102369190610cfa565b60405180910390f35b610247610ad1565b6040516102549190610d15565b60405180910390f35b610265610af7565b6040516102729190610d51565b60405180910390f35b60035481565b60065481565b60075481565b60055481565b600160009054906101000a900473ffffffffffffffffffffffffffffffffffffffff1673ffffffffffffffffffffffffffffffffffffffff163373ffffffffffffffffffffffffffffffffffffffff1614610323576040517f08c379a000000000000000000000000000000000000000000000000000000000815260040161031a90610dc9565b60405180910390fd5b6000600254118015610343575060025442118061034257506000600554145b5b610382576040517f08c379a000000000000000000000000000000000000000000000000000000000815260040161037990610e35565b60405180910390fd5b600960009054906101000a900473ffffffffffffffffffffffffffffffffffffffff1673ffffffffffffffffffffffffffffffffffffffff1663a9059cbb600160009054906101000a900473ffffffffffffffffffffffffffffffffffffffff16836040518363ffffffff1660e01b8152600401610401929190610e55565b6020604051808303816000875af1158015610420573d6000803e3d6000fd5b505050506040513d601f19601f820116820180604052508101906104449190610eaa565b5050565b60045481565b600060025414610493576040517f08c379a000000000000000000000000000000000000000000000000000000000815260040161048a90610f23565b60405180910390fd5b600160009054906101000a900473ffffffffffffffffffffffffffffffffffffffff1673ffffffffffffffffffffffffffffffffffffffff163373ffffffffffffffffffffffffffffffffffffffff1614610523576040517f08c379a000000000000000000000000000000000000000000000000000000000815260040161051a90610dc9565b60405180910390fd5b600354426105319190610f72565b600281905550565b60006020528060005260406000206000915090508060000160009054906101000a900473ffffffffffffffffffffffffffffffffffffffff16908060010154908060020160009054906101000a900460ff16905083565b60006002541180156105b057506002544211806105af57506000600554145b5b6105ef576040517f08c379a00000000000000000000000000000000000000000000000000000000081526004016105e690610e35565b60405180910390fd5b600060025414610634576040517f08c379a000000000000000000000000000000000000000000000000000000000815260040161062b90610f23565b60405180910390fd5b60008060003373ffffffffffffffffffffffffffffffffffffffff1673ffffffffffffffffffffffffffffffffffffffff168152602001908152602001600020905060008160010154116106bd576040517f08c379a00000000000000000000000000000000000000000000000000000000081526004016106b490611014565b60405180910390fd5b600015158160020160009054906101000a900460ff16151514610715576040517f08c379a000000000000000000000000000000000000000000000000000000000815260040161070c906110a6565b60405180910390fd5b60018160020160006101000a81548160ff02191690831515021790555060008160010181905550600860009054906101000a900473ffffffffffffffffffffffffffffffffffffffff1673ffffffffffffffffffffffffffffffffffffffff1663a9059cbb8260000160009054906101000a900473ffffffffffffffffffffffffffffffffffffffff1683600101546040518363ffffffff1660e01b81526004016107c1929190610e55565b6020604051808303816000875af11580156107e0573d6000803e3d6000fd5b505050506040513d601f19601f820116820180604052508101906108049190610eaa565b5050565b600060025411801561081b575060025442105b801561082957506000600554115b610868576040517f08c379a000000000000000000000000000000000000000000000000000000000815260040161085f90611112565b60405180910390fd5b600754811015801561087c57506006548111155b6108bb576040517f08c379a00000000000000000000000000000000000000000000000000000000081526004016108b29061117e565b60405180910390fd5b600554811115610900576040517f08c379a00000000000000000000000000000000000000000000000000000000081526004016108f790611210565b60405180910390fd5b600960009054906101000a900473ffffffffffffffffffffffffffffffffffffffff1673ffffffffffffffffffffffffffffffffffffffff166323b872dd3330846040518463ffffffff1660e01b815260040161095f93929190611230565b6020604051808303816000875af115801561097e573d6000803e3d6000fd5b505050506040513d601f19601f820116820180604052508101906109a29190610eaa565b5080600560008282546109b59190611267565b9250508190555060405180606001604052803373ffffffffffffffffffffffffffffffffffffffff168152602001828152602001600015158152506000803373ffffffffffffffffffffffffffffffffffffffff1673ffffffffffffffffffffffffffffffffffffffff16815260200190815260200160002060008201518160000160006101000a81548173ffffffffffffffffffffffffffffffffffffffff021916908373ffffffffffffffffffffffffffffffffffffffff1602179055506020820151816001015560408201518160020160006101000a81548160ff02191690831515021790555090505050565b60025481565b600960009054906101000a900473ffffffffffffffffffffffffffffffffffffffff1681565b600160009054906101000a900473ffffffffffffffffffffffffffffffffffffffff1681565b600860009054906101000a900473ffffffffffffffffffffffffffffffffffffffff1681565b6000819050919050565b610b3081610b1d565b82525050565b6000602082019050610b4b6000830184610b27565b92915050565b600080fd5b610b5f81610b1d565b8114610b6a57600080fd5b50565b600081359050610b7c81610b56565b92915050565b600060208284031215610b9857610b97610b51565b5b6000610ba684828501610b6d565b91505092915050565b600073ffffffffffffffffffffffffffffffffffffffff82169050919050565b6000610bda82610baf565b9050919050565b610bea81610bcf565b8114610bf557600080fd5b50565b600081359050610c0781610be1565b92915050565b600060208284031215610c2357610c22610b51565b5b6000610c3184828501610bf8565b91505092915050565b610c4381610bcf565b82525050565b60008115159050919050565b610c5e81610c49565b82525050565b6000606082019050610c796000830186610c3a565b610c866020830185610b27565b610c936040830184610c55565b949350505050565b6000819050919050565b6000610cc0610cbb610cb684610baf565b610c9b565b610baf565b9050919050565b6000610cd282610ca5565b9050919050565b6000610ce482610cc7565b9050919050565b610cf481610cd9565b82525050565b6000602082019050610d0f6000830184610ceb565b92915050565b6000602082019050610d2a6000830184610c3a565b92915050565b6000610d3b82610cc7565b9050919050565b610d4b81610d30565b82525050565b6000602082019050610d666000830184610d42565b92915050565b600082825260208201905092915050565b7f6f6e6c792061646d696e2063616e2073656e6420697400000000000000000000600082015250565b6000610db3601683610d6c565b9150610dbe82610d7d565b602082019050919050565b60006020820190508181036000830152610de281610da6565b9050919050565b7f69636f20697320656e6465640000000000000000000000000000000000000000600082015250565b6000610e1f600c83610d6c565b9150610e2a82610de9565b602082019050919050565b60006020820190508181036000830152610e4e81610e12565b9050919050565b6000604082019050610e6a6000830185610c3a565b610e776020830184610b27565b9392505050565b610e8781610c49565b8114610e9257600080fd5b50565b600081519050610ea481610e7e565b92915050565b600060208284031215610ec057610ebf610b51565b5b6000610ece84828501610e95565b91505092915050565b7f69636f206e6f7420616374697665000000000000000000000000000000000000600082015250565b6000610f0d600e83610d6c565b9150610f1882610ed7565b602082019050919050565b60006020820190508181036000830152610f3c81610f00565b9050919050565b7f4e487b7100000000000000000000000000000000000000000000000000000000600052601160045260246000fd5b6000610f7d82610b1d565b9150610f8883610b1d565b9250827fffffffffffffffffffffffffffffffffffffffffffffffffffffffffffffffff03821115610fbd57610fbc610f43565b5b828201905092915050565b7f7075726368617365206669727374000000000000000000000000000000000000600082015250565b6000610ffe600e83610d6c565b915061100982610fc8565b602082019050919050565b6000602082019050818103600083015261102d81610ff1565b9050919050565b7f796f75206861766520616c72656164792077697468647261772074686520746f60008201527f6b656e0000000000000000000000000000000000000000000000000000000000602082015250565b6000611090602383610d6c565b915061109b82611034565b604082019050919050565b600060208201905081810360008301526110bf81611083565b9050919050565b7f6f6e6520636f6e646974696f6e206973206661696c6564000000000000000000600082015250565b60006110fc601783610d6c565b9150611107826110c6565b602082019050919050565b6000602082019050818103600083015261112b816110ef565b9050919050565b7f796f752061726520657863656564696e6720746865206c696d69740000000000600082015250565b6000611168601b83610d6c565b915061117382611132565b602082019050919050565b600060208201905081810360008301526111978161115b565b9050919050565b7f6e6f7420656e6f75676820746f6b656e7320617661696c61626c6520746f207060008201527f727563686173652074686520746f6b656e730000000000000000000000000000602082015250565b60006111fa603283610d6c565b91506112058261119e565b604082019050919050565b60006020820190508181036000830152611229816111ed565b9050919050565b60006060820190506112456000830186610c3a565b6112526020830185610c3a565b61125f6040830184610b27565b949350505050565b600061127282610b1d565b915061127d83610b1d565b9250828210156112905761128f610f43565b5b82820390509291505056fea26469706673582212203ef2884c29ff18b7a3465f427287d1b56c9a8b351b102b0c1b5acda006fe6a3e64736f6c634300080c0033",
  "immutableReferences": {},
  "source": "// SPDX-License-Identifier: Vishal\r\npragma solidity ^0.8.0;\r\n\r\nimport \"@openzeppelin/contracts/token/ERC20/ERC20.sol\";\r\nimport \"./Token.sol\";\r\n\r\ncontract ICO{\r\n    struct Sale{\r\n        address investor;\r\n        uint amount;\r\n        bool tokenWithdrawn;\r\n    }\r\n\r\n    mapping(address=>Sale) public sales;\r\n\r\n    address public admin;\r\n    uint public end;\r\n    uint public duration;\r\n    uint public price;\r\n    uint public availableTokens;\r\n    uint public maxpurchase;\r\n    uint public minpurchase;\r\n\r\n    Token public token;\r\n    IERC20 public dai=IERC20(0x6B175474E89094C44Da98b954EedeAC495271d0F);\r\n\r\n    constructor(address _tokenaddress, \r\n    uint _duration,\r\n    uint _price,\r\n    uint _availableTokens,\r\n    uint _maxpurchase,\r\n    uint _minpurchase) {\r\n        token=Token(_tokenaddress);\r\n       require(_duration>0,\"duration cannot be 0\");\r\n       require(_price>0,\"price should not be 0\");\r\n       require(_availableTokens>0 && _availableTokens<=token.totalsupply(),\r\n       \"total supply exceeds\");\r\n       require(_minpurchase>0,\"minimum purchase must be greater than 0\");\r\n       require(_maxpurchase>0 && _maxpurchase<=_availableTokens,\"not enough available tokens\");\r\n       \r\n       admin =msg.sender;\r\n       duration=_duration;\r\n       price=_price;\r\n       availableTokens=_availableTokens;\r\n       maxpurchase=_maxpurchase;\r\n       minpurchase=_minpurchase;\r\n    }\r\n\r\n    //modifiers\r\n\r\n\r\n    modifier icoActive(){\r\n        require(end>0 && block.timestamp<end && availableTokens>0,\"one condition is failed\");\r\n        _;\r\n    }\r\n\r\n    modifier icoNotActive(){\r\n        require(end==0,\"ico not active\");\r\n        _;\r\n    }\r\n\r\n    modifier icoEnded(){\r\n        require(end>0 && (block.timestamp>end || availableTokens==0),\"ico is ended\");\r\n        _;\r\n    }\r\n    modifier onlyAdmin(){\r\n        require(msg.sender==admin,\r\n        \"only admin can send it\");\r\n        _;\r\n    }\r\n\r\n    // start the ico\r\n     function start() external icoNotActive() onlyAdmin(){\r\n         end=block.timestamp+duration;\r\n     }\r\n     \r\n     function buy(uint tokenAmount)  public icoActive() {\r\n          require(tokenAmount>=minpurchase && tokenAmount<=maxpurchase,\r\n          \"you are exceeding the limit\");\r\n           require(tokenAmount<=availableTokens,\r\n           \"not enough tokens available to pruchase the tokens\");\r\n           dai.transferFrom(msg.sender,address(this),tokenAmount);\r\n           availableTokens-=tokenAmount;\r\n           sales[msg.sender]=Sale(\r\n               msg.sender,\r\n               tokenAmount,\r\n               false\r\n           );\r\n     }\r\n     //  functional modifiers will make sure withdrawal of tokens only occurs \r\n    //  when token is in secondary market\r\n\r\n     function withdrawToken() public icoEnded() icoNotActive(){\r\n          Sale storage sale=sales[msg.sender];\r\n          require(sale.amount>0,\"purchase first\");\r\n          require(sale.tokenWithdrawn==false,\"you have already withdraw the token\");\r\n          sale.tokenWithdrawn=true;\r\n          sale.amount=0;\r\n        //   payable(msg.sender).transfer(sale.amount);\r\n        // or you can also achieve the same result by\r\n        token.transfer(sale.investor,sale.amount);\r\n     }\r\n\r\n         function withdrawDai(uint amount)\r\n        external\r\n        onlyAdmin()\r\n        icoEnded() {\r\n        dai.transfer(admin, amount);\r\n    }\r\n}",
  "sourcePath": "C:\\Users\\user\\Desktop\\Projects\\Blockchain\\Solidity\\ICO\\contracts\\ICO.sol",
  "compiler": {
    "name": "solc",
    "version": "0.8.12+commit.f00d7308.Emscripten.clang"
  },
  "schemaVersion": "3.4.6",
  "updatedAt": "2022-06-15T09:13:07.023Z",
  "devdoc": {
    "kind": "dev",
    "methods": {},
    "version": 1
  },
  "userdoc": {
    "kind": "user",
    "methods": {},
    "version": 1
  }
}